{
  "_format": "hh-sol-artifact-1",
  "contractName": "HelloWorld",
  "sourceName": "contracts/HelloWorld.sol",
  "abi": [
    {
      "inputs": [
        {
          "internalType": "string",
          "name": "_message",
          "type": "string"
        }
      ],
      "stateMutability": "nonpayable",
      "type": "constructor"
    },
    {
      "inputs": [],
      "name": "hello",
      "outputs": [
        {
          "internalType": "string",
          "name": "",
          "type": "string"
        }
      ],
      "stateMutability": "view",
      "type": "function"
    },
    {
      "inputs": [
        {
          "internalType": "string",
          "name": "_message",
          "type": "string"
        }
      ],
      "name": "setHello",
      "outputs": [],
      "stateMutability": "nonpayable",
      "type": "function"
    }
  ],
  "bytecode": "0x60806040523480156200001157600080fd5b5060405162000b0738038062000b078339818101604052810190620000379190620002f9565b620000df600080546200004a9062000460565b80601f0160208091040260200160405190810160405280929190818152602001828054620000789062000460565b8015620000c95780601f106200009d57610100808354040283529160200191620000c9565b820191906000526020600020905b815481529060010190602001808311620000ab57829003601f168201915b5050505050620000ff60201b6200015f1760201c565b8060009080519060200190620000f7929190620001cb565b50506200054f565b6200019f816040516024016200011691906200038b565b6040516020818303038152906040527f41304fac000000000000000000000000000000000000000000000000000000007bffffffffffffffffffffffffffffffffffffffffffffffffffffffff19166020820180517bffffffffffffffffffffffffffffffffffffffffffffffffffffffff8381831617835250505050620001a260201b60201c565b50565b60008151905060006a636f6e736f6c652e6c6f679050602083016000808483855afa5050505050565b828054620001d99062000460565b90600052602060002090601f016020900481019282620001fd576000855562000249565b82601f106200021857805160ff191683800117855562000249565b8280016001018555821562000249579182015b82811115620002485782518255916020019190600101906200022b565b5b5090506200025891906200025c565b5090565b5b80821115620002775760008160009055506001016200025d565b5090565b6000620002926200028c84620003d8565b620003af565b905082815260208101848484011115620002b157620002b06200052f565b5b620002be8482856200042a565b509392505050565b600082601f830112620002de57620002dd6200052a565b5b8151620002f08482602086016200027b565b91505092915050565b60006020828403121562000312576200031162000539565b5b600082015167ffffffffffffffff81111562000333576200033262000534565b5b6200034184828501620002c6565b91505092915050565b600062000357826200040e565b62000363818562000419565b9350620003758185602086016200042a565b62000380816200053e565b840191505092915050565b60006020820190508181036000830152620003a781846200034a565b905092915050565b6000620003bb620003ce565b9050620003c9828262000496565b919050565b6000604051905090565b600067ffffffffffffffff821115620003f657620003f5620004fb565b5b62000401826200053e565b9050602081019050919050565b600081519050919050565b600082825260208201905092915050565b60005b838110156200044a5780820151818401526020810190506200042d565b838111156200045a576000848401525b50505050565b600060028204905060018216806200047957607f821691505b6020821081141562000490576200048f620004cc565b5b50919050565b620004a1826200053e565b810181811067ffffffffffffffff82111715620004c357620004c2620004fb565b5b80604052505050565b7f4e487b7100000000000000000000000000000000000000000000000000000000600052602260045260246000fd5b7f4e487b7100000000000000000000000000000000000000000000000000000000600052604160045260246000fd5b600080fd5b600080fd5b600080fd5b600080fd5b6000601f19601f8301169050919050565b6105a8806200055f6000396000f3fe608060405234801561001057600080fd5b50600436106100365760003560e01c806319ff1d211461003b578063435ffe9414610059575b600080fd5b610043610075565b60405161005091906103b6565b60405180910390f35b610073600480360381019061006e9190610334565b610107565b005b6060600080546100849061048c565b80601f01602080910402602001604051908101604052809291908181526020018280546100b09061048c565b80156100fd5780601f106100d2576101008083540402835291602001916100fd565b820191906000526020600020905b8154815290600101906020018083116100e057829003601f168201915b5050505050905090565b6101456040518060400160405280600f81526020017f6d657373616765206368616e676564000000000000000000000000000000000081525061015f565b806000908051906020019061015b929190610221565b5050565b6101f58160405160240161017391906103b6565b6040516020818303038152906040527f41304fac000000000000000000000000000000000000000000000000000000007bffffffffffffffffffffffffffffffffffffffffffffffffffffffff19166020820180517bffffffffffffffffffffffffffffffffffffffffffffffffffffffff83818316178352505050506101f8565b50565b60008151905060006a636f6e736f6c652e6c6f679050602083016000808483855afa5050505050565b82805461022d9061048c565b90600052602060002090601f01602090048101928261024f5760008555610296565b82601f1061026857805160ff1916838001178555610296565b82800160010185558215610296579182015b8281111561029557825182559160200191906001019061027a565b5b5090506102a391906102a7565b5090565b5b808211156102c05760008160009055506001016102a8565b5090565b60006102d76102d2846103fd565b6103d8565b9050828152602081018484840111156102f3576102f2610552565b5b6102fe84828561044a565b509392505050565b600082601f83011261031b5761031a61054d565b5b813561032b8482602086016102c4565b91505092915050565b60006020828403121561034a5761034961055c565b5b600082013567ffffffffffffffff81111561036857610367610557565b5b61037484828501610306565b91505092915050565b60006103888261042e565b6103928185610439565b93506103a2818560208601610459565b6103ab81610561565b840191505092915050565b600060208201905081810360008301526103d0818461037d565b905092915050565b60006103e26103f3565b90506103ee82826104be565b919050565b6000604051905090565b600067ffffffffffffffff8211156104185761041761051e565b5b61042182610561565b9050602081019050919050565b600081519050919050565b600082825260208201905092915050565b82818337600083830152505050565b60005b8381101561047757808201518184015260208101905061045c565b83811115610486576000848401525b50505050565b600060028204905060018216806104a457607f821691505b602082108114156104b8576104b76104ef565b5b50919050565b6104c782610561565b810181811067ffffffffffffffff821117156104e6576104e561051e565b5b80604052505050565b7f4e487b7100000000000000000000000000000000000000000000000000000000600052602260045260246000fd5b7f4e487b7100000000000000000000000000000000000000000000000000000000600052604160045260246000fd5b600080fd5b600080fd5b600080fd5b600080fd5b6000601f19601f830116905091905056fea264697066735822122052b3a0d1b1f4bbcd8f15c54855978135ef0aea4149a2277cc44bb7320123813964736f6c63430008060033",
  "linkReferences": {},
  "deployedLinkReferences": {}
}